:020000041000EA
:1000000000B5324B212058609868022188439860DF
:10001000D860186158612E4B002199600221596106
:100020000121F02299502B49196001219960352056
:1000300000F044F80222904214D00621196600F024
:1000400034F8196E01211966002018661A6600F04E
:100050002CF8196E196E196E052000F02FF8012189
:100060000842F9D1002199601B49196000215960AB
:100070001A491B48016001219960EB211966A021F2
:10008000196600F012F800219960164914480160C1
:100090000121996001BC002800D000471248134993
:1000A000086003C880F30888084703B5996A0420EC
:1000B0000142FBD001200142F8D103BD02B5186610
:1000C0001866FFF7F2FF186E186E02BD00000240BE
:1000D000000000180000070000035F00212200005C
:1000E000F4000018222000A00001001008ED00E03C
:1000F00000000000000000000000000074B24E7A12
:1001000000200420F7010010C3010010C5010010F9
:10011000C1010010C1010010C1010010C101001097
:10012000C1010010C1010010C1010010C701001081
:10013000C1010010C1010010C9010010CB01001065
:10014000CD010010CD010010CD010010CD01001037
:10015000CD010010CD010010CD010010CD01001027
:10016000CD010010CD010010CD010010CD01001017
:10017000CD010010CD010010CD010010CD01001007
:10018000CD010010CD010010CD010010CD010010F7
:10019000CD010010CD010010CD010010CD010010E7
:1001A000CD010010CD010010CD010010CD010010D7
:1001B000CD010010CD010010CD010010CD010010C7
:1001C00000BE00BE00BE00BE00BE00BE00F04BF888
:1001D000103800BEF2EB8871FC4E00101C4F00106E
:1001E0003402001090A31AE700202149086006C8D5
:1001F00081F3088810471F48006800282FD10DA4FC
:100200000ECC002902D000F012F8F9E71A491B4A77
:10021000002000E001C19142FCD1194988471949E9
:1002200088471949884700BEFDE701C901C29A42C3
:10023000FBD370471C4F0010C0000020BC060020FC
:10024000185500100000042000000420185500106C
:1002500000100420001004200000000070470B482C
:1002600002F0E0FD0047EFF30580C0B270470000E8
:1002700008ED00E0000000D0C0060020840A002045
:10028000311400108D0300100115001057560000A6
:1002900006005250ABB36053984E00100600525007
:1002A000861C0302A84E0010060052505422A29D44
:1002B000B84E001005005250DE65F4681855001065
:1002C000F8B5C046044B10B5002B03D003490448D1
:1002D00000E000BF10BDC046000000004408002040
:1002E0002041001041618261C361009B0362039B56
:1002F0008360019BC360029B0361704770B5060079
:1003000000250CE02C1DA4003419606800F082F870
:10031000626801239340D022120653620135032DF7
:10032000F0D970BD10B5002203E0D02109068B6121
:100330000132032A11D8131D9B00C3185C6803689F
:1003400011499B009B189B0059580123A340002989
:10035000EBD0D02109064B61EAE78268002A08DB6E
:100360000368022B0DDC0133036043689B18436074
:1003700010BD0368002B02DD013B0360F5E703239A
:10038000FBE70023F0E7C0462041001010B596B00F
:1003900001240394124B029300230193153300931D
:1003A000013B1322122104A8FFF79CFF039464234E
:1003B000029364330193BB3B0093013B0B220A2160
:1003C0000DA8FFF78FFF04A8FFF798FF0DA8FFF710
:1003D00095FF0DA8FFF7A6FF042000F0C2FCF8E788
:1003E0000604000010B58300084A944663441A6866
:1003F00040246240803414408022520113431C6028
:10040000C000034B9C466044416010BD04C00140E5
:100410000040014010B501238340D02212069362B0
:1004200093610521FFF7DEFF10BD0000EFF31080A0
:1004300072B6034B1B68002BFBD0BFF35F8F704776
:100440002C0100D0BFF35F8F024B00221A6080F3B3
:10045000108870472C0100D0F8B505000C0016007C
:10046000FFF7E4FFE308EF18EA5C072121401300DF
:10047000CB40DB0707D401238B40DBB21A433A7031
:10048000FFF7E0FFF8BD2100300001F05BF800004D
:10049000002307E0054A9A189200BFF35F8F0021FE
:1004A000116001331F2BF5D97047C046400000345E
:1004B000054A1078431CDBB21370172B02D91300C6
:1004C00010221A707047C046D0010020034B1B68F1
:1004D00002201840431E9841C0B2704700C0064039
:1004E00040BF00200021704770B505000C000800D7
:1004F00000F086FC200000F05BFD0849200000F0C1
:10050000ABFCFFF7D5FF064B9C466044800068605B
:100510002C75044BA400E55070BDC046ED070010DB
:10052000400000345C08002010B5002920D003688A
:100530001B7B99421CD88368154CA4466144090171
:100540005B181C685968002A18D003681B7B9A4204
:1005500014D883680E488446624412019B181A68B6
:100560005B6801208B4201D80ED00020C0B210BDC4
:10057000084B094A0948392100F0C6FF054B064AD5
:100580000648392100F0C0FFA242EFD8EDE7C0468F
:10059000FFFFFF0FC4410010D4430010744100104E
:1005A00010B500291DD0037B99421AD804684B006E
:1005B0005B18033BE418002919D0002A1DD0914292
:1005C00021D0002A25D0037B9A4222D8006853000C
:1005D0009B18033BC3189970217800291FD1227002
:1005E00010BD104B104A1148692100F08DFF104BCF
:1005F000104A0E48703100F087FF0F4B0D4A0B4830
:10060000712100F081FF0D4B0A4A0848722100F069
:100610007BFF044B044A0548692100F075FF5970BF
:100620002270DDE7E8410010404400100442001051
:10063000684200101C4400107442001080420010F8
:1006400070B506000D001400002914D0002A14D043
:10065000436880689847002806D0220029003000AF
:10066000FFF79EFF280007E02A0021003000FFF777
:1006700097FF200000E0100070BD0800FCE70000BC
:10068000F0B583B00500009201930AAB1C780BAB68
:100690001F78002C26D003685A7B944207D101238F
:1006A000002B19D1002C3AD1200003B0F0BD002C52
:1006B0000CD01A7B944209D81A6863001B19033BBB
:1006C000D3189B78002BEBD00123E9E73C4B3D4A44
:1006D0003D48692100F018FF3C4B3D4A3D486221EE
:1006E00000F012FF03689C7B002CDBD011D01A7B3A
:1006F00094420ED81A6861000919033952185178CA
:100700009973002900D1D97300239370537013702B
:10071000C8E72B4B2B4A2C48692100F0F5FE002C32
:1007200037D02B681B7B9C4233D8AB682A4AA2186F
:1007300012019B18009A1A60019A5A60089A9A60EE
:10074000099ADA602E68002C29D02ED0337B9C4287
:100750002BD8336862001219033A9B1800229A7052
:100760005A701A70717B22003000FFF769FF7073B6
:10077000844299D1287D009A019B00F0B5FB061EAA
:1007800001D0002F17D00C9B002B00D18CE71E70DE
:100790008AE7124B124A0F48392100F0B5FE114B7F
:1007A000114A0948A62100F0AFFE054B054A06484C
:1007B000692100F0A9FE2868210000F0BDFDE2E7F4
:1007C000E84100104044001004420010984200101C
:1007D0004C44001074410010FFFFFF0FC441001093
:1007E000D44300107041001030440010F0B5DE46D4
:1007F00057464E464546E0B58DB00B9000230A9310
:10080000AF4B8200D3581C0053E0AE4BAE4AAF480A
:10081000392100F079FE002E01D1002D71D1002187
:1008200000F080FDB8421CD14B461A685B68089204
:1008300009934B469B689A464B46DB689B4653465A
:10084000002B14D0002F18D023681B7B9F4214D894
:10085000E2687B1ED35C0A931B02184320610020D0
:100860001AE09B4B9B4A9948892100F04DFE9A4B18
:10087000984A96488D2100F047FE924B974A93483C
:100880003E2100F041FE00239B46002200230892F7
:10089000099300239A4600206368BFF35F8F00220C
:1008A0001A6088F310885346002B38D1002800D1F5
:1008B000FEE000F0B1FA069007916268EFF310884D
:1008C00072B61368002BFCD0BFF35F8F2068477BA4
:1008D000002FD8D099D0037B9F4296D8A568804B33
:1008E000FB181B01A94699444B461A685B6808929D
:1008F000099315001E00069A079BAD1A9E41002E13
:1009000089DD089A099B0B9800F0EEFA00239B46BC
:10091000002200230892099300239A46BCE70A9B11
:100920001E023E4359463000D04706900791626848
:10093000EFF3108572B6136859424B41D9B2002BC0
:10094000F9D1BFF35F8F079B002B21DB079B002BA7
:1009500048DD2369002B4BD0B3426AD100F05CFA2A
:1009600002000B0010001900069A079B12184B4159
:10097000994266D863D00021049101310391029716
:1009800059460191514600912000FFF779FE47E05A
:100990002369002BDAD0B34217D1089A099B069835
:1009A0000799121A8B4108980999994216D812D0C2
:1009B000002104910131039102975946019151465A
:1009C00000912000FFF75CFE2AE0464B414A3F4879
:1009D0009C2100F099FD08999142E9D901225242E7
:1009E000D317E5E7069A079B002B01D1002AB0D167
:1009F0002368002F3ED05A7B974226D1012100293F
:100A000038D1DA7B002A3BD1DF73002F4AD023682C
:100A10001B7B9F4246D8E1687B1ECA5C0132CA54E8
:100A2000002323616268BFF35F8F136085F3108832
:100A30003FE72C4B274A25489F2100F065FD904257
:100A400099D901225242D31795E7002F0CD01A7B77
:100A5000974209D818687A00D219033A8218927816
:100A6000002ACCD00121CAE71F4B204A2048692127
:100A700000F04AFD1F4B204A1D48F72100F044FDBD
:100A8000002A09D0197B8A4206D8186851008A18B2
:100A9000033A82185770B7E7134B144A1448692178
:100AA00000F032FD074B0D4A08483E2100F02CFDB6
:100AB0000DB0F0BCBB46B246A946A046F0BDC0464C
:100AC0005C080020C4410010D443001074410010A1
:100AD000C0420010B8430010D8420010F843001084
:100AE000FFFFFF0FE4420010E841001040440010F7
:100AF00004420010204300100C44001010B5084BB5
:100B00005B68002B00D010BD054C064A206823000E
:100B1000102100F02BFB03212000FFF7E5FCF2E79A
:100B2000D40100202905001010B5064B5B68002B8E
:100B300001D0044810BD044B044A0548592100F077
:100B4000E3FCC046D401002044430010E043001001
:100B500074410010F0B5DE4657464E464546E0B5B6
:100B60008BB0804616001F00149B9A46159B994631
:100B700016AB1B789B461F2302AA944663440022AF
:100B80001A7001E016001F0043465A68EFF3108404
:100B900072B6136859424B41D9B20791002BF8D174
:100BA000BFF35F8F1F3302AA94466344049300236C
:100BB000039302934B4601935346009332003B004C
:100BC0004046FFF75DFD031E2ED1020041464968F5
:100BD000BFF35F8F00250D6084F31088002B48D091
:100BE0001F2302A98C4663441B78002B2ED11202CE
:100BF0001043002B3FD05B46002B3CD04946D047EA
:100C000004000D0003000B433CD0002920DA320021
:100C10003B00121BAB419F4202D8B3D19642B1D9DF
:100C200001267642F717AFE7002809D0424612683E
:100C3000127B904204D84246D168421E8A5CC5E7C6
:100C4000114B124A12483E2100F05EFC0798D0E793
:100C500000F0E2F802000B00A4185D4126002F000E
:100C6000A94202D890D1A0428ED901267642F71728
:100C70008AE7012040420BB0F0BCBB46B246A94611
:100C8000A046F0BD0798F6E7C4410010F8430010F5
:100C900074410010F0B585B006000F00FFF7E3FACD
:100CA00000281AD106246442E517A4197D41BD42EB
:100CB00002D803D1B44201D90024002500F0ACF8D9
:100CC00022002B00121A8B41002B0BDC08D03000C5
:100CD000390000F0ADF805B0F0BD134800F032FC6B
:100CE000002AF4D0FFF720FF0023029301930F4B5B
:100CF000009322002B00FFF72DFF002806DAE6E71D
:100D0000002300E00023002BE1D120BF084B5B6AE9
:100D10009D42F7D80649896AA14203D29D42EFD08D
:100D20000123F0E70123EEE768430010E10400101F
:100D30000040054070B504000D0000F06DF80200A1
:100D40000B0020002900801859418B4205D802D0A1
:100D5000FFF7A0FF70BD8242FAD901204042C117BF
:100D6000F6E710B5FA2292000023002102F016FFE8
:100D7000FFF7E0FF10BD000070B5EFF305833F20E3
:100D800018401038EFF3108C72B6184B1B68002B0C
:100D9000FBD0BFF35F8F012319008140144A5163D8
:100DA000144A12781400C440234213D0104B5C6ADA
:100DB000114B8500EB589C4205D3104BEB580D4C62
:100DC0008A43227007E00A4A031D9B0099589950F4
:100DD000002300E00023BFF35F8F044A002111606D
:100DE0008CF31088002B00D0984770BD280100D0EC
:100DF00000400540820A0020700A0020C40700203D
:100E000010B50100024A034B1800FFF725FB10BD87
:100E100064440010800A0020044B5B6A034A906A15
:100E20001900536A9942F9D17047C0460040054005
:100E3000084B5B6A01E0074B5B6A8B42FBD301E026
:100E4000044B5B6A8B4203D1024B9B6A8342F7D30C
:100E50007047C0460040054070B504000E00EFF337
:100E6000108572B61B4B1B68002BFBD0BFF35F8F46
:100E7000002E1CD0200000F079FD174B83420BD0D0
:100E80001900200000F07AFD0121200000F066FD2D
:100E90000123A340114A1360114BA400E650BFF395
:100EA0005F8F0C4B00221A6085F3108870BD0C4BCD
:100EB000A2000021D1500122A2400A490B7893439D
:100EC0000B700549200000F083FD0021200000F098
:100ED00045FDE4E7280100D0790D00103860054099
:100EE000C4070020820A0020F8B5CE46474680B5E8
:100EF000040016001D00FFF78FFF8D4202D844D179
:100F0000864242D9EFF3108972B6224B1B68002B40
:100F1000FBD0BFF35F8F0127A7401F4B5F63FAB27F
:100F200090461E490A78404602430A70221D9200EC
:100F3000D6501B4AA400A5501B6A3B4212D1164B47
:100F40001B6C3B4208D00020BFF35F8F114B002287
:100F50001A6089F3108819E0124B134A1348B22122
:100F600000F0D2FAFFF758FF8D420CD801D186422B
:100F700009D8094B1F625F63084A137841468B43C7
:100F800013700120E0E70020DEE70120C0BCB94675
:100F9000B046F8BD280100D000400540820A00207C
:100FA000700A00208844001004450010AC44001072
:100FB000EFF3108C72B60B4B1B68002BFBD0BFF30A
:100FC0005F8F01238340084A136208490A789A43D5
:100FD0000A70BFF35F8F034B00221A608CF31088F6
:100FE0007047C046280100D000400540820A00201A
:100FF000024B9C4661448900016070474000003408
:1010000010B50400FFF754FA01002000FFF7F0FFCD
:10101000FF232371BFF35F8F10BD000010B50029BF
:101020001DD0037B99421AD804684B005B18033B20
:10103000E418002919D0002A1DD0914221D0002A9D
:1010400025D0037B9A4222D8006853009B18033BAB
:10105000C3189970217800291FD1227010BD104B40
:10106000104A1148692100F04FFA104B104A0E48FF
:10107000703100F049FA0F4B0D4A0B48712100F016
:1010800043FA0D4B0A4A0848722100F03DFA044B1E
:10109000044A0548692100F037FA59702270DDE7EB
:1010A000E8410010C44600100442001068420010DD
:1010B000B0460010744200108042001070B5060067
:1010C0000D001400002914D0002A14D04368806851
:1010D0009847002806D0220029003000FFF79EFF25
:1010E000280007E02A0021003000FFF797FF2000CA
:1010F00000E0100070BD0800FCE7000010B5002300
:10110000437301338373037BC3730123027B9A42CE
:1011100013D9002B0BD0027B934208D801685A00E8
:10112000D218033A8A180133DBB25370EEE70C4B46
:101130000C4A0D48692100F0E7F9002A09D09242D3
:1011400007D8016853009B18033BCB1800225A7044
:1011500010BD034B034A0448692100F0D5F9C0468D
:10116000E8410010C44600100442001010B501739D
:1011700042608360FFF7C2FF10BD000070B504003D
:10118000081E00D170BD002931D0237B99422ED892
:1011900022684B005B18033BD3185A78002AF1D021
:1011A0002BD0237B9A4228D8216853009B18033BFD
:1011B000CB185D7800215970002824D0237B9842F9
:1011C00021D8216843001B18033BCB18002159701C
:1011D00001002000FFF772FF060029002000FFF742
:1011E000CDFF020031002000FFF768FFCAE7094B7E
:1011F000094A0A48692100F087F9064B064A074860
:10120000692100F081F9034B034A0448692100F089
:101210007BF9C046E8410010C446001004420010AB
:1012200070B505000C001600002927D02CD0037BD8
:10123000994229D803684900091903395B185A787B
:10124000002A27D19A78002A2AD11978FFF796FF29
:101250000300002E03D0EA7B002A27D1EC73002B79
:1012600036D1002C47D02B7B9C4244D82A6863009F
:101270001B19033BD31800225A7070BD214B224A20
:101280002248382100F040F9214B224A22486921A6
:1012900000F03AF9214B1C4A1C483A2100F034F97D
:1012A0001F4B194A19483B2100F02EF9002A09D09A
:1012B000297B8A4206D82E6851008A18033AB21850
:1012C0005470CBE7124B134A1348692100F01CF904
:1012D000002B0AD02A7B934207D82A6843001B18A8
:1012E000033BD31800229A70BBE7094B094A0A480E
:1012F000692100F009F9064B064A0748692100F008
:1013000003F9C046B84500109C460010C0450010C7
:10131000E8410010C44600100442001010460010BE
:101320003846001070B504000A00457B2900FFF71D
:1013300077FF6073280070BD70B50400002966D087
:10134000437B8B420ED0002911D0037B99420ED8EB
:1013500005684B005B18033BED18AB78002B0CD1F4
:10136000002055E00121FFF7DDFF012050E0294B6F
:10137000294A2A48692100F0C7F8002B1FD0027BB8
:1013800093421CD800685A00D318033BC218C35CB0
:101390008B421AD0002B1BD0227B934218D8206896
:1013A0005A00D318033BC01843788B4216D0002B49
:1013B000F0D11B4B1B4A1C48672100F0A5F8154BC8
:1013C000154A1648692100F09FF86B78137007E002
:1013D000104B114A1148692100F096F86B78437060
:1013E0000023AB706B7001222000FFF719FF020091
:1013F000617B814205D02000FFF760FE6073012011
:1014000006E00A4B074A08486D2100F07DF80020ED
:1014100070BDC046E8410010C446001004420010F0
:101420005C46001084460010C04500106446001061
:1014300070B5234B234A1A60234B244A1A60244B6D
:101440009A68224B9343FAD1224C01E008CC98478A
:10145000214B9C42FAD300F001F91B4B1F4A1A6042
:101460001B4B9B68DB43DB01FAD11D4B40229A6783
:101470005A671A67DA661B4C03E02000FFF7C0FDCD
:101480000834194B9C42F8D3184DA968184CC02257
:10149000200002F043FCAC60FEF7E5FE002800D01F
:1014A00000BEFEF7F5FF00F0F5FBFFF727FB114C40
:1014B00001E008CC9847104B9C42FAD370BDC0465F
:1014C00000E00040BFCDFFFF00F00040FE7F3C0089
:1014D00000C00040A4060020B4060020FFFFFF016A
:1014E00000F001409C060020A406002000ED00E072
:1014F00000000020B4060020BC06002000BEFDE76E
:1015000010B5FFF7FBFF000030B583B00D001900E8
:10151000002A0DD0084B002A0CD0084C01920093F1
:101520002B000200200002F011FD0120FFF7E6FF72
:10153000034BF0E7024AF0E7D0460010E046001007
:10154000DC4600100FB400B583B0084802F0CEFCB2
:10155000049B002B07D005A90191180002F0D4FCD0
:10156000034802F0C3FC0120FFF7C8FF104700103A
:1015700020470010F8B5D646474680B506000D0056
:101580001700089A934243D3190E1802089A0023B1
:1015900001F0E6FC80467400A419A4002A4B9C4686
:1015A00064446368834200D26060331FDBB29A46B2
:1015B000012B33D9C0239B012343802212011A60DF
:1015C000224BB200D158002905D0586901F082FCA5
:1015D00001300138FDD17F0123685F40E0223A40AD
:1015E00080235B0123431A605246012A21D98023BC
:1015F0009B012343802212011A6043466360134B10
:10160000B600089AF2500120C0BCBA46B046F8BDF8
:101610000F4B104A10482E21FFF776FF012DC9D13C
:10162000C0239B01234303221A60A368DB07FCD578
:10163000D1E72168694003220A401A60A2680123A9
:10164000AB401342FAD0D2E700800040D40700201C
:1016500024470010944700103847001030B583B07D
:101660000C2000F08DF8FEF731FF00280DD000238C
:1016700004E0344A9900344888500133092BF8D9E2
:10168000304B324A5A6203B030BD314B00229A6768
:1016900000F07EF82F4B01221A602D4B5B6C012B62
:1016A000FBD12D4B03221A60294B9B6B012BFBD1E5
:1016B000C0239B01294A1360294A1360294B9A6869
:1016C000C0239B019343F9D1022400940633264A98
:1016D0000121264800F070F800940523244A0121D6
:1016E000244800F069F8244B0093002202210420D2
:1016F000FFF740FF214D00952B000022012105201E
:10170000FFF738FF104C009423000022002107202F
:10171000FFF730FF00942300002200210820FFF78C
:1017200029FF0A4B00932300002200210920FFF724
:1017300021FF00952B00002200210620FFF71AFF51
:10174000A1E7C046D4070020006CDC021BB70000F4
:10175000008000403CB0004030B0004000E000405D
:1017600000F0004000C00040002F68590080024097
:1017700000389C1C00C00240001BB7004059730792
:1017800080239B000343014AD362704700800540D9
:10179000064BAA2212011A602F22DA60044B054A76
:1017A0001A60024B5B68002BFBDA70470040024076
:1017B0000060024000B0FA00F0B5CE4600B504006B
:1017C000894616001D0001235B42436000238360AD
:1017D0000C2001F07FFB07004B46236043011B1ADE
:1017E0009901C91AC90009188901300001F072FB7A
:1017F0000200103A98235B009A4220D86B1E062BF9
:1018000023D8069B013B062B1FD8069B9D4222D363
:101810003309BB4225D3A060221DC0239B01134383
:1018200021221A602268002AFCDA2D04069A160387
:101830003543E56008221A6080BCB946F0BD0C4B08
:101840000C4A0D481A21FFF75FFE0C4B094A0A4863
:101850001D21FFF759FE0A4B064A07482321FFF7CF
:1018600053FE084B034A04482721FFF74DFEC046AC
:10187000A447001094480010C047001014480010FE
:101880006048001078480010074B9B6810308000BB
:101890001950BFF35F8FBFF35F8F044B00211960B6
:1018A00082F310887047C04600ED00E0240100D0AC
:1018B00010B5091A04394B08090B05D15B055B0DFE
:1018C0000448184380B210BD034B044A04488C21DD
:1018D000FFF71AFE00E0FFFFA0480010C04A00100A
:1018E000B048001010B5091A04394A08090B08D18C
:1018F0004905490D064B0B430380064B13434380B8
:1019000010BD054B054A06489421FFF7FDFDC04672
:1019100000F0FFFF00F8FFFFA0480010944A0010FD
:10192000B048001001238340034A10681840431E4A
:101930009841C0B27047C04600E100E0002904D0E1
:10194000034B1860034B18607047034B1860FBE7AC
:1019500080E200E000E100E080E100E010B501235A
:1019600083401800FFF7EAFF10BD0000024B9B68A0
:1019700010308000C058704700ED00E070B50400E2
:101980000D00EFF3108672B60C4B1B68002BFBD0DA
:10199000BFF35F8F2000FFF7E9FF094B984201D0AA
:1019A000A84205D1320029002000FFF76DFF70BD6D
:1019B000044B054A05487021FFF7A6FD240100D01D
:1019C000CD01001004490010DC4A0010B04800109E
:1019D000F0B5CE46474680B583B006000D00EFF364
:1019E000108872B6574B1B68002BFBD0BFF35F8F7C
:1019F000554B9A6834001034A300D758534B9F427C
:101A000007D0AF4200D19BE00197514BFB1A2F2B1F
:101A100009D9424639003000FFF736FF03B0C0BC99
:101A2000B946B046F0BD3000FFF77CFF814600218B
:101A30003000FFF793FFBFF35F8FFEF714FC002821
:101A400001D084421AD10123019C9C43404B2200C7
:101A5000D21A5241484B53431B0D5BB29C460021A6
:101A6000A368AB4212D00622A256002A0DDB530017
:101A70009B189B00364A2100D418F1E7354B364AB3
:101A800020213648FF31FFF73FFD2100AB4250D106
:101A900006256557002D37DB2D4B6A005219920041
:101AA0009B189A68A260DA79E2719B795BB2A371A4
:101AB000002B10DABD200002A080254B6A005219CD
:101AC00092009B18264A117899711570494630008A
:101AD000FFF744FF9DE7201D6B005B199B001C4A2C
:101AE0009B18191D9B88DA0A1C2A07D15B055B1518
:101AF00002335B00C918FFF7DBFEDDE7194B1A4A1A
:101B000016489A21FFF700FD00280DD1002909D0C1
:101B1000FF238B71154B8B80114B1A78A271624693
:101B20001A70D3E7094FF7E71149201DFFF7DAFED6
:101B3000CCE7104B084AAA2108484900FFF7E4FC0B
:101B4000024F66E7240100D000ED00E0CD01001057
:101B5000FC010020184A0010AC4A0010B0480010E8
:101B6000810A0020004A0010CC4A001000BDFFFF8F
:101B7000360200203C4A0010AAAA000010B5032338
:101B800004009C43064A9446644422681840C000FE
:101B9000FC3383409A43130081400B43236010BD04
:101BA00000E400E070B50400012606432D4BF31A53
:101BB0002F2B28D8FEF757FB00282BD0EFF3108CE3
:101BC00072B6294B1B68002BFBD0BFF35F8F254DEE
:101BD00023005B1B5B412E4D5D432D0D6DB2234BEE
:101BE0009B6880001B58B3421BD00021032932D8C8
:101BF0001C4B4A00521892009B189B795BB2AB4277
:101C00001FD00131F2E71A4B1A4A72211A48FF31EC
:101C1000FFF77AFC194B174ABA2117484900FFF71A
:101C200073FC124B9B68164A1A50164B1A78A27115
:101C30001D70BFF35F8F0C4B00221A608CF310886D
:101C400070BD084B4A00501880001818FF26867196
:101C50000D4A8280E9E70D4B064A86210648FF318E
:101C6000FFF752FCFC010020240100D000ED00E051
:101C7000444A0010784A0010B04800106C4A001026
:101C8000CD010010810A002000BDFFFF5C4600105E
:101C9000AAAA000010B5002404E080212000FFF76C
:101CA0006DFF01341F2CF8D910BD704710B5002806
:101CB00002D00B684968984710BD0100002007E07A
:101CC00083001B185B00501C08601078C018303867
:101CD0000A681378303BDBB2092BF1D97047F0B5B5
:101CE000DE4657464E464546E0B583B093461F0054
:101CF0000C9B9A460D9C0E9B99460F9B9B0703D00D
:101D0000B8460F00060022E00192A34688464E46E0
:101D1000B9460700B44207D2551C4B464146202025
:101D2000B84701342A00F5E73D004F465C46019B69
:101D30009B46B1464646B84637002E0007E0013CB8
:101D4000551C5346185D43463900B0472A00002C05
:101D5000F5D135003E0047460F9B9B0707D4100086
:101D600003B0F0BCBB46B246A946A046F0BDB046A3
:101D70004E46B9462F005D46531BB342EFD2541C6A
:101D80004B4641462020B8472200F5E7F0B5CE4645
:101D9000474680B585B0944698460C9D0D9C0EAB89
:101DA0001B789946109A119B129EB7071CD4002BE2
:101DB0000CD0F7070AD54F46002F02D10C37374217
:101DC00004D0013B02E030272F550134944201D268
:101DD0001F2CF8D9F70707D59C4205D21F2C03D832
:101DE00030272F550134F5E7F70615D5770505D4CB
:101DF000002C03D0944224D09C4222D00F9A102A67
:101E00002BD00F9A102A30D00F9A022A35D01F2CCF
:101E100002D830222A5501341F2C05D84A46002A00
:101E200031D02D222A550134039602930194009556
:101E300043466246FFF753FF05B0C0BCB946B04603
:101E4000F0BD621E012C06D00F9F102F01D0140090
:101E5000D4E7023CD2E71400D0E7B206D1D41F2C5D
:101E6000CFD878222A550134D1E7B206CCD51F2C21
:101E7000CAD858222A550134C9E71F2CC7D8603266
:101E80002A550134C3E7720703D52B222A550134A2
:101E9000CAE73207C8D520222A550134C4E7F0B575
:101EA000DE4657464E464546E0B593B081468A46E3
:101EB000089209931CAB10CB1B789B461E9D219B5F
:101EC0009846002C03D1102342469A439046802323
:101ED000DB0046461E4042461A4212D0002C22D059
:101EE00000260EE03031CBB2771C0AAA93552900A8
:101EF000200000F0EFFFAC4216D31F2F14D83E0095
:101F000004002900200000F0E5FFC9B20929E9D941
:101F100043469B0605D541235B18DBB20A3BDBB287
:101F2000E2E76123F8E7270043460693209B0593E9
:101F30001F9B049303955B46029301970AAB0093A2
:101F4000099B089A51464846FFF720FF13B0F0BCA2
:101F5000BB46B246A946A046F0BDF0B5DE465746A0
:101F60004E464546E0B595B0089009910A920B930C
:101F70001E9E1F9C20AB1B789B46229B9946239D4F
:101F8000269B9A463300234303D1103352469A438B
:101F900092468023DB0057461F4052461A4219D012
:101FA000330023432DD0002714E03032D3B27A1C03
:101FB00090460CAAD3554A462B003000210000F071
:101FC000CFFFA5421FD819D043461F2B1BD8474629
:101FD00006000C004A462B003000210000F0C0FF34
:101FE000D2B2092AE1D953469B0605D541239B1855
:101FF000DBB20A3BDBB2DAE76123F8E7B145E3D9AC
:1020000001E00023984653460693259B0593249BA5
:1020100004934B4603935B460293434601930CABF8
:1020200000930B9B0A9A09990898FFF7AFFE15B029
:10203000F0BCBB46B246A946A046F0BDF0B5DE46B0
:1020400057464E464546E0B591B083468A460C92C7
:1020500098461A9C08941B9D099522002B0020008D
:10206000290001F0F4F9002800D0E5E001225242F5
:10207000D74B2000290001F0E5F9002800D0DBE073
:1020800001225242D34B2000290001F0C5F900285B
:1020900000D0D1E000220023089E3000099D2900D5
:1020A00001F0BAF9002800D0DDE0089A099B0692F9
:1020B00007938023DB001E9A1A400D921E9A1A4243
:1020C00001D106231C930698079904000D000A000D
:1020D0000600024300D1D1E0080D4005400DBE4C82
:1020E000A44660440A03120BBC4B13431F0001F0CB
:1020F000C1F9BB4ABB4B01F04DF9BB4ABB4B01F0E8
:1021000037F904000D000022B94B3000390001F00E
:1021100026F9B84AB84B01F03DF902000B00200047
:10212000290001F025F901F0BDF9814601F0A2F97D
:1021300004000D00B14AB24B01F02CF90022B14B62
:1021400001F016F901F0AEF90600AF4AAF4B2000DE
:10215000290001F01FF904000D00300001F08AF998
:10216000AB4AAC4B01F016F902000B00200029002D
:1021700001F0F5F804000D0002000B0001F00AF96F
:102180000A900B91A44BF31800261F0522002B0088
:102190002000290001F0ECF80E900F9122002B0096
:1021A00000208021C90501F0DAF804000D000022AA
:1021B0009A4B0A980B9901F0E4F80022984B01F031
:1021C000D7F802000B000A980B9901F0DAF8002208
:1021D000944B01F0CDF802000B000A980B9901F026
:1021E000D0F802000B002000290001F0C1F8020025
:1021F0000B000E980F9901F0C4F80022774B01F004
:10220000B7F832003B0001F0C5F806000F000400EB
:102210000D00069A079B01F015F9002830D0012324
:102220005B429C46E14400227D4B3000390001F0C6
:10223000A8F804000D0023E01E9B04931D9B03934C
:102240001C9B0293089A099B0092019343460C9AA7
:102250005146584600F0FCF811B0F0BCBB46B246FF
:10226000A946A046F0BD00230024069307940696D5
:1022700080231B069C46654407951AE70023994670
:102280004B466333C62B1ED804261E9B1B0526D542
:102290002B0023430FD0644A644B0698079901F042
:1022A000C9F8002879D00022614B0698079901F0FF
:1022B000B3F8002871D01C9B4B4506DD4A469B1A9B
:1022C000013B1C9303E00526DFE700231C938023DA
:1022D000DB001E9A1A431E920026002399461D9B7E
:1022E0009E4264D29F1B02231E9A1A400A921E9A93
:1022F000134202D0002E00D000274B46002B07D0FF
:1023000022002B000698079901F03BF806900791F0
:10231000002200230898099901F07EF8002848D18E
:10232000444B1E9A1340049303971C9B0293069BF5
:10233000079C0093019443460C9A5146584600F07E
:1023400087F8002E00D187E71E9B9B063DD54525CB
:10235000441C4346020051462800D8474A46D3173A
:10236000D2185A4005230593013E04960023039397
:102370000A3302934B46DB0F01930092434622003F
:1023800051465846FFF78BFD0A9B002B00D163E7AF
:1023900002005F460C9E1D9D54E01C9B002B9ED0AE
:1023A0000D9B002B9BD01C9B013B1C9397E70027A8
:1023B00099E7069C079D220029008020000684469C
:1023C00061440B0006920793AAE76525C0E7C04663
:1023D000FFFFEF7FFFFFEFFF01FCFFFF0000F03F7B
:1023E000FB799F501344D33FB3C8608B288AC63F04
:1023F0000000F83F61436F63A787D23F71A379095B
:102400004F930A400000E03F1655B5BBB16B024048
:10241000EF39FAFE422EE63FFF03000000002C4099
:1024200000002440000018402D431CEBE2361A3F08
:1024300080842E41FFF7FFFF541C43465146202065
:10244000B8472200931BAB42F6D3100004E7C04606
:10245000F0B5DE4657464E464546E0B595B0069087
:10246000079193469946209F1E9A1F9B10001900C2
:1024700000F0EDFF002831D101225242BF4B1E98DF
:102480001F9900F0C9FF002837D101225242BC4BEE
:102490001E981F9900F0D6FF00283DD10022B94BAD
:1024A0001E981F9900F0CEFF002850D10022B64B95
:1024B0001E981F9900F0B0FF002848D10022002389
:1024C0001E981F9900F0A8FF002850D100239846BD
:1024D000229B5B0500D4B6E0002458E0229B0393C6
:1024E000219B029303230193A84B00934B465A462A
:1024F00007990698FFF7F3FB0EE1229B0393219BBC
:10250000029304230193A24B00934B465A4607992A
:102510000698FFF7E4FBFFE00423229A1A40229971
:102520000B4210D09B4B002A0FD00422229903911A
:1025300021990291019200934B465A4607990698B9
:10254000FFF7CDFBE8E0944BEDE70322EEE7229B9B
:102550000493219B039302971E9B1F9C009301945D
:102560004B465A4607990698FFF768FDD4E01E9A35
:102570001F9B0020002100F0F2FE1E901F910123FE
:102580009846A5E70CAB30221A55013F01341F2CA9
:1025900001D8092FF6D81E981F9900F083FF050077
:1025A00000F068FF02000B001E981F9900F0D7FE94
:1025B0007A4BFA009B181A685B680A920B9300F03A
:1025C000E9FE0890099100F091FF060000F04EFF2F
:1025D00002000B000898099900F0C1FE08900991CB
:1025E00000226F4B00F02EFF00282ED00136300065
:1025F00000F03CFF02000B000A980B9900F012FF5C
:10260000002801D001350026002F2CD1280000F031
:1026100031FF02000B001E981F9900F0A0FE06007B
:102620000F0000225E4B00F0F7FE002846D100228A
:102630005B4B3000390000F005FF00283ED1EB076E
:102640003CD501353AE0062746E70022544B08986E
:10265000099900F0E1FE0028D6D1002E01D0F30741
:10266000D2D50136D0E7AA461F2C11D8013F0A2146
:10267000300000F02FFC651C30310CAB19550A21DD
:10268000300000F027FC092E0ED906002C00EBE7E5
:1026900055461F2C0CD87B1E002F09D00CAA3021C8
:1026A00011551F000134F4E72B0055461C00F0E7DC
:1026B0001F2C03D80CAB2E221A5501341F2C10D816
:1026C0000A21280000F0DAFB661C30310CAB1955EA
:1026D0000A21280000F0D2FB051E01D03400EDE7EE
:1026E00034000323229A1340012B1CD01F2C06D840
:1026F0004346002B32D00CAB2D221A550134229BBD
:102700000393219B029301940CAB00934B465A46D2
:1027100007990698FFF7E3FA15B0F0BCBB46B2463E
:10272000A946A046F0BD219B002B13D04346002BA9
:1027300002D10C3313420FD0219B013B219319008E
:1027400003E00CAB30221A5501348C42CED21F2C40
:10275000F7D9CBE72199F8E72199F6E7229B5B07A8
:1027600004D50CAB2B221A550134C8E7229B1B075A
:10277000C5D50CAB20221A550134C0E7FFFFEFFF8F
:10278000FFFFEF7F65CDCD4165CDCDC1044B00107E
:10279000084B0010F84A0010004B0010B04C00101D
:1027A0000000E03FF0B5DE4657464E464546E0B5F0
:1027B00093B082468B4690461193002900D100E3E6
:1027C00000275446119B1878002800D1FCE22528E8
:1027D00009D07D1C43463A005946A047119B01335E
:1027E00011932F00EEE7013311930025119A117810
:1027F0000B00203BD8B2102803D88300C248C3582E
:102800009F460B00303BDBB2092B2CD92A292FD055
:1028100000230A93119B1A782E2A39D00023994657
:10282000119A1378683BD9B2122976D88B00B74930
:10283000CB589F4601231D4301321192D6E7022354
:102840001D4301321192D1E704231D43013211923D
:10285000CCE708231D4301321192C7E710231D4323
:1028600001321192C2E711A8FFF727FA0A90D1E7C7
:102870001C9B1A1D1C921B68002B04DB0A93119BE6
:1028800001331193C6E7022215435B420A93F6E730
:102890008022D20015435A1C11925A781300303B03
:1028A000DBB2092B04D92A2A07D000239946B7E7BF
:1028B00011A8FFF702FA8146B2E71C9B1A1D1C9271
:1028C0001B68002B04DB9946119B01331193A7E78A
:1028D0000023F8E780235B002B43511C11915278B1
:1028E0006C2A01D01D0018E0C0239B001D4301315C
:1028F000119112E080232B43511C11915278682AC8
:1029000001D01D0009E0C0231D430131119104E0F5
:1029100080235B001D4301321192119B18786728B8
:1029200016D8252826D30300253BDAB2422A21D81F
:102930009300774AD3589F4680239B001D43013262
:102940001192EAE780235B001D4301321192E4E714
:1029500078280FD869280DD30200693AD2B2012332
:1029600093406C4A13420FD11A0600D503E25B056F
:1029700000D594E17D1C43463A005946A047119B7F
:10298000013311932F001DE7782809D0622838D031
:102990006F2838D0582838D010239D430A2600E0ED
:1029A0001026582833D0692803D0642801D00C227F
:1029B00095436A0501D50122954369282AD06428E8
:1029C00028D0AA0500D5A7E0EA0500D5C0E06A0630
:1029D00000D4D2E01C9A111D1C911168FF220A40FC
:1029E00005950A9B04934B4603930296002301939B
:1029F000009243463A0059462000FFF750FA07007C
:102A000027E00226CDE70826CBE71026C9E72022DB
:102A10001543C8E7AA0520D4EA0550D46A0666D54E
:102A20001C9A111D1C911168FF220A40D017111821
:102A3000414005950A9B04934B4603930296D20F9F
:102A40000192009143463A0059462000FFF727FAC9
:102A50000700119B01331193B4E61C9A073207213A
:102A60008A43110008311C91116853689C46DB179A
:102A70000C930D930C9A0D9B100048400E906246EB
:102A800053400F930E980F990C9A0D9B801A994101
:102A90000E900F9108950A9B07934B460693049658
:102AA000002305936346DA0F02920090019143469A
:102AB0003A0059462000FFF750FA0700C9E71C9A70
:102AC000111D1C911268D0171118414005950A9BE1
:102AD00004934B4603930296D20F01920091434612
:102AE0003A0059462000FFF7DAF90700B1E72A0655
:102AF00005D51C9A111D1C910023D25E96E71C9AE5
:102B0000111D1C91126891E7104B0010544B0010DE
:102B1000A04B0010419000001C9A073207218A4305
:102B2000110008311C9108950A9B07934B460693A8
:102B30000496002305930293536812680092019350
:102B400043463A0059462000FFF707FA070080E79E
:102B50001C9A111D1C9105950A9B04934B460393E7
:102B60000296002301931368009343463A005946A6
:102B70002000FFF794F907006BE72A0606D51C9A98
:102B8000111D1C9112681204120C29E71C9A111DC8
:102B90001C91126824E746281AD01C9B0733072291
:102BA00093431A0008321C9204950A9A03924A46EB
:102BB00002921A685B680092019343463A005946B4
:102BC0002000FFF745FC0700119B01331193F9E545
:102BD00020231D43E1E7672801D0472802D1802345
:102BE0001B011D43452801D0472801D120231D4347
:102BF0001C9B0733072293431A0008321C9204954A
:102C00000A9A03924A4602921A685B6800920193FC
:102C100043463A0059462000FFF710FA0700119B7F
:102C200001331193CEE502231A002A4092462B422B
:102C30001FD001251C9B1A1D1C927A1C91461878E6
:102C400043463A005946A0475346002B16D1119BE4
:102C5000013311934F46B5E5561C43465946202093
:102C6000B8472B0032005D1C9C42F5D83C00170091
:102C7000E0E701233A0027000A9CF4E74A46A14610
:102C80000A9C06E0571C434659462020C847350099
:102C90003A006E1CAC42F5D84C469146D7E71C9BD7
:102CA0001A1D1C921E684B46002B00D1013B3100BF
:102CB00001E0013113000A78002A02D05A1E002BCD
:102CC000F7D1891B10918023DB002A001A4092461D
:102CD0001D4203D0494501D94B46109302231A00E7
:102CE0002A400B922B4205D03A00574623004C460F
:102CF000994620E03A00109B5F46B346260006E066
:102D0000541C434639002020B0472B0022005D1C94
:102D10000A999942F4D834005E46BB46109557464E
:102D200023004C46994606E01C000136551C4346DC
:102D30005946C8472A003078002804D0002FF4D024
:102D4000631E002CF0D117004C460B9B002B03D1C7
:102D5000119B0133119335E50A9F109B06E0561C29
:102D6000434659462020A0472B0032005D1C9F425D
:102D7000F5D81700ECE721232B431C9A111D1C9159
:102D800012680593082304934B4603931023029380
:102D900000230193009243463A0059462000FFF772
:102DA0007EF80700119B013311930BE57D1C434610
:102DB0003A0059462520A047119B013311932F005B
:102DC00000E50B4B9A46FBE4A246474502D3434637
:102DD0005A1E00E03A00434659460020D0473800CA
:102DE00013B0F0BCBB46B246A946A046F0BDC046F3
:102DF000AB1C001000B585B002900391012104487E
:102E0000009313004A4202A9FFF7CCFC05B000BDB5
:102E1000AD1C001001480421014B1847500200204E
:102E2000452E001010B5010018231B8814221088AD
:102E3000984710BD10B5010018231B881622108872
:102E4000984710BDF0B5C64600B507000E00002536
:102E50000123984600E00135B5420AD2AC003C1986
:102E60002068FFF7DFFF20600028F4D10023984698
:102E7000F1E7404680BCB846F0BD0000144A936FAD
:102E80009B0815D29066D166002905D0FFE7FFE7C1
:102E9000FFE7516F106F704704B580210906C21714
:102EA0005140002800D0C84301F022F9002104BDA0
:102EB000936F5B08FDD3F0B5946ED56E576F166FA8
:102EC000FFF7E0FF9466D56657671667F0BD000010
:102ED000000000D0134A936F9B0813D2106651660E
:102EE000002905D0FFE7FFE7FFE7516F106F70473C
:102EF00004B5002801D00020C04301F0F9F80021FA
:102F000004BDC046936F5B08FDD3F0B5946ED56EDB
:102F1000576F166FFFF7E2FF9466D566576716671F
:102F2000F0BD0000000000D094464E4A926F920817
:102F3000624601D230E0C046F0B54A4EB56F6D082A
:102F4000FCD3346E756E776F366F00F025F89446BB
:102F5000444A14665566576716676246F0BDC04618
:102F60009446404A926F9208624601D258E0C046A9
:102F7000F0B53C4EB56F6D08FCD3346E756E776F4F
:102F8000366F00F04DF89446364A1466556657671A
:102F900016676246F0BDC046002B24DB11D0002925
:102FA0003EDA00B5C943404200D1013100F038F8A3
:102FB000C943404200D10131DB43524200D10133C9
:102FC00000BD002AEBD1002801D1002905D0002046
:102FD000C90FC90701D1C043410800B501F080F80D
:102FE0000022002300BD00B500290ADBDB4352426A
:102FF00000D1013300F014F8C943404200D101313F
:1030000000BDC943404200D10131DB43524200D1EF
:10301000013300F005F8DB43524200D1013300BD1B
:10302000002923D1002B18D1002A0CD0BC460D4F0B
:1030300038667A6600210023FFE7FFE7FFE77A6F33
:10304000386F67467047002801D00748010000B577
:1030500001F046F80022002300BD02000B00002012
:1030600000217047000000D0FFFFFFFF002B00D0C1
:10307000BDE0130C26D1002AE7D080B4104F39668A
:103080007A66FFE7FFE730B4040C7B6F396F1B04EF
:1030900023433B66FFE7FFE7FFE7C04684B27B6F51
:1030A0003D6F1B0423433B66FFE7FFE7C046002359
:1030B0002C042D0C7A6F386F00196941B0BC704731
:1030C000000000D0F0B594460025140E01D1120284
:1030D0000835140F01D112010435940F01D192006B
:1030E0000235D40F01D152000135D40B0134254FE4
:1030F0007C66254C3C660E0C93B2FFE7FFE7FFE7CA
:103100003C6F6643360C7703BE467343DF0B5B04AC
:10311000C01AB941130C7343DB18C91ACE086643B1
:10312000360CB64493B273431F0F1B01C01AB9414A
:10313000130C73431F0B1B05C01AB941860D8F0278
:103140003E436643360C092D24DB520A7243801A33
:103150007703460A6643360C16235B1BDE40DF40CE
:10316000BF1964466643821B70460435063301006E
:10317000D940A840C01900D30131A24206D2002391
:10318000F0BD0000000000D0FFFFFFFF121B013068
:10319000F3D3F1E709277F1BFE406446A2B27243D6
:1031A000801A00D20139220C7243130C1204821AC5
:1031B00099410B007046043513370100F940A840CF
:1031C000801900D30131002B02D1A2420AD2F0BDF6
:1031D000013000D30131121BFAD2013BF8D1A242D7
:1031E00000D2F0BD013000D30131121BF7E7F0B57A
:1031F0001C0C00D080E00CB400251C0A04D11B027A
:10320000160E3343120208351C0B04D11B01160F96
:103210003343120104359C0B04D19B00960F3343BA
:1032200092000235DC0B02D192185B4101351C0083
:10323000971864410134464F7C66464C3C660E0C40
:10324000FFE7FFE7FFE7C0463C6F6643360C7703B6
:10325000BE4697B27743C01B00D20139C01B00D2D3
:1032600001399FB27743C91BC91B170C77437E04F2
:10327000FF0B801BB941CE086643360C0C2D33DBA7
:10328000B644120B1F053A431B0B97B27743C01B82
:1032900000D201399FB27743C91B170C77433E0414
:1032A0003F0C801BB941860D8F023E4366432927A0
:1032B0007F1BFE400C3D7746AF40BF1930BCA2B229
:1032C000ABB272437343801A9941220C7243130CC0
:1032D0001204801A994102000B000137001BA9411A
:1032E000F9D2781E0021F0BD0C277F1BFE407746E7
:1032F0007F0BAF40FF19E0E700245D1C07D0144F9F
:103300007D663966FFE7FFE7FFE7FFE73C6F95B2B1
:103310009EB265436643401BB141150C1E0C6543CC
:10332000664336042F0C3E432D04401BB1419942A5
:1033300004D202000B0020000021F0BD01D1904218
:10334000F7D3801A994101349942F2D3F6E700008D
:10335000000000D0FFFFFFFF48404140484018B444
:10336000114B5B68FC46019308BD04DFF735001084
:1033700018B40D4B1B68FC46019308BD00DF0136F5
:10338000001018B4084BDB68FC46019308BD0CDF45
:10339000B938001018B4044B9B68FC46019308BD73
:1033A00008DF5D37001000006C080020FFB55040BA
:1033B0004240504059404B40594000E0FFB5154F46
:1033C0004C00640D03D0BC4204D10C0314D800207F
:1033D000090D09055C00640D03D0BC4204D11C0337
:1033E0000AD800221B0D1B0501264B4009D44B4077
:1033F00003D58B4200D18242FFBD9942FCD190425D
:10340000FFBD0B43DB1803431343F5D0C9434918F1
:10341000FFBD0000FF07000000B5FFF7CFFF8041B0
:1034200000BDC04600B5FFF7C9FF01D9002000BDAF
:10343000012000BD00B5FFF7B9FF01D9002000BD94
:10344000012000BD00B5FFF7B1FF804100BD0120A4
:1034500040054A00121804D85A00121801D800205A
:1034600070470120704700207047000000210028AD
:1034700005D17047C1174840401AFAD0C90713B5A3
:10348000064B1B6898470CBC441CA2401005120B4D
:103490000349091B09051943114310BD6C0900209C
:1034A0001F04000010B54C00620D8023D218DB0011
:1034B000D21A5B057E2A10DD9E3A13DACC17090377
:1034C000490819435242D140640001341532202A80
:1034D00005DAD0400843604310BD002010BD084607
:1034E000604310BDC80FC018013810BD18B4044B9C
:1034F0005B6AFC46019308BD24DFE53A001000003A
:103500006C08002070B513231C78012C0FD0012CFF
:103510000FDC022C02DC1D4B1D4A936470BD1B495D
:103520001B4A9800815001331F2BF8D9EFE7002385
:10353000FAE71848FFF77EFC05001748FFF77AFC0A
:10354000023803789B007F2B19DD11488022290067
:1035500000F0E4FB022CDCD1104B1A88B5231B02CF
:103560009A4209D10E4B1A880E4B9A4204D10E4B47
:103570001A880E4B9A42CCD00020FDF7E3FF0C4B8B
:103580000C4A0D483021FDF7BFFFC046BD35001085
:103590006C080020534400005346000054380000DB
:1035A000D8380000494600009C3800005946000009
:1035B000004D0010C04D0010604D001007B5604672
:1035C000002800D100BE01880A0A0230DF2AFAD1A1
:1035D000C9B2820804D3028840880004104300E086
:1035E0000068024A5050039007BD00006C0800209C
:1035F0000FB403BC0CBCF0B50124E407634000E049
:10360000F0B50C0DCF0F661E3605891B640503D37C
:10361000C943404200D30131640D03D0661CF60A51
:1036200007D0E41B00207F00791C89078912803CA9
:1036300024031D0DDF0F6E1E36059B1B6D0503D386
:10364000DB43524200D301336D0D03D06E1CF60AEA
:1036500007D0ED1B00227F007B1C9B079B12803D47
:103660002D032F1B661B58D4A446202E46DA203784
:103670001400BC401D00BD40F24033412A43801875
:103680005941CB0F05D0C943C04300226442504189
:10369000514162464D0D28D10D0D07D100281FD094
:1036A000241940414941013A0D0DF9D0640006D377
:1036B000013000D30131002C01D140084000013A13
:1036C0000BD4941CE40A04D112051144DB071944FD
:1036D000F0BDD907204B194300E0D9070020F0BD09
:1036E0000029DDD1002CDBD1F0BD0132C607400836
:1036F000CD0728434908002EE1D0D9E73C2E29DA2E
:10370000203E40371400BC4000D00124F240144356
:103710001A00BB401C43D317ACE7AC46202F08DA95
:1037200020360400B4400D00B540F840394128432C
:10373000A5E73C2F0CDA203F40360400B44000D00F
:103740000124F84004430800B1400C43C117EAE7E4
:1037500010001900002494E70000F07FF0B50C0D74
:10376000661E3605891BE60A6405640D02D0651CD9
:10377000ED0A04D0002001210905803C2403A44661
:103780001C0D671E3F05DB1BE70A6405640D02D0B4
:10379000651CED0A04D0002201231B05803C240394
:1037A0007740644497B484B296B27443070C7E4366
:1037B000150C6F4380B26843361802D30120000411
:1037C0003F183004350C00197D41844688B29AB206
:1037D00050430C0C62431F0C7C438EB27E43921903
:1037E00002D301263604A4191604170C36186741B3
:1037F00001BC81B29AB25143040C62431B0C5C437E
:1038000080B25843121802D3012000042418100477
:10381000130C401863412D185E410020474106BC3F
:1038200088B293B258430C0C6343120C544389B2D0
:1038300051435B1802D301210904641819041A0CBE
:10384000091862416D1856410020474118BCF90221
:10385000720D1143F0026A0D1043ED020A0D03D1FF
:103860006D1940414941013B124E9B1B7600B3420A
:103870000ED26D0007D301300026714166463543F4
:1038800001D1400840001B05C918E4072144F0BDE0
:103890000BDA013306D1013004D101314F0D01D0D3
:1038A0004908F2E7E1070020F0BD013631050020AC
:1038B000EBE70000FF030000F0B51C0D671E3F059D
:1038C000DB1BE70A6405640D02D0661CF60A04D00F
:1038D000002201231B05803C2403D0252D06002651
:1038E000F6432E661E096E66CE0FF619B4464900E1
:1038F0004F0D02D07E1CF60A03D000200021403F6D
:103900003F033E1BB600B444013F7F05C91B490875
:103910002E6F013676089C02950D25437543ED13F5
:103920007543AD1301356D10F603761B0CB4CC0254
:10393000450D2C43A2B2B3B25A43270C7B43350C3E
:103940006F43A4B26C431B1902D3012424043F1912
:103950001C041D0CA4187D4124196D41009A91B2DC
:10396000ACB26143170C7C432B0C5F4392B25A43B9
:10397000A41802D301221204BF182204230C5218E7
:103980007B41019C6C431B19520ED9010A4344012F
:10399000A01A81B2B2B2514303145A43360C734396
:1039A00087B27743D617D21900277E4136049B1978
:1039B0001704160C7F185E417316ED18F3010026EC
:1039C00080337541A90F06D16400690AE8055B0AD6
:1039D000184309D22FE00422944480337541A90A88
:1039E000A8059B0A184326D3404149412404009A64
:1039F000019B0D005543641B4343E41A95B286B204
:103A00007543170C7E43030C5F4392B25A43B618BA
:103A100002D301221204BF183204330C52197B4125
:103A200052429C41002C02D40022013051414008F6
:103A3000CA071043490802B06246D7079210084BE4
:103A4000D218084B9A4203D212058918C919F0BD41
:103A50000020002A01DC3900F0BD01331905F5E72B
:103A6000FD030000FE070000624618CA94460029C4
:103A70001ADAC01861415B463B415C46B44052468D
:103A8000FA40224344464D4662416B419046994676
:103A90002B46B3403D41FC401C4352465B46A2418D
:103AA000AB4192469B467047C01AA1414B463B41F1
:103AB0004C46B4404246FA40224354465D46624179
:103AC0006B4192469B462B46B3403D41FC401C4314
:103AD00042464B46A241AB41904699467047002072
:103AE00000217047002200B5203200F004F80800E1
:103AF00000BD000000220B15F1D410B5944600F073
:103B00002FF81414013400DA0021CB17134C20478E
:103B10006244343A0CD40C2A07DA040091409040F5
:103B200052422032D440214310BDD843D94310BD66
:103B3000203207D40C469440524220321141D040EA
:103B4000204310BD0800C917203203D4524220324E
:103B5000104110BD1800190010BD0000113B0010ED
:103B60000A0DCC0F531E1B05C91A520503D3C943B6
:103B7000404200D30131520D03D0531CDB0A07D061
:103B8000121B00206400611C89078912803A12030D
:103B9000014BD21A70470000FF030000514343431A
:103BA000C9188C46110C83B24B4310B4040C61430A
:103BB00092B280B2504362431C041B0C001910BC2B
:103BC00059411304120CC018514161447047000060
:103BD00070B513231E782A48FFF72CF90500012E33
:103BE00011D0012E09DDAB1E1B789B007F2B40DD21
:103BF00024488022290000F091F82348FFF712F9A9
:103C0000224B186070BD1F485422290000F086F82E
:103C10001F4B1A881F4B9A421CD1A7239B011A885D
:103C20001D4B9A4216D11D4B1A881D4B9A4211D139
:103C30001C4B1A8894239B019A420BD11A4B1A8869
:103C40001A4B9A4206D11A4B1A681A4B9A4201D162
:103C5000152307E01848FDF775FC184C094A990030
:103C60008C5001331F2BF8D9144B064A1362D361D1
:103C7000B7E7134B134A14484221FDF745FCC046F1
:103C800053460000700900204C3300006C090020EE
:103C9000EE290000C40F0000C20D0000962B0000AA
:103CA000C0B50000182B0000CC2A000010B50000A1
:103CB000FC2C000051ED8764DC460010CD3C001068
:103CC000D44D0010684E0010084E001007B5604635
:103CD000002800D100BE01880A0A0230DF2AFAD18A
:103CE000C9B2820804D3028840880004104300E06F
:103CF0000068024A5050039007BD00007009002080
:103D000001480421014B184760020020452E001095
:103D1000014B1B681847000060020020014B5B68E4
:103D20001847000060020020F8B507000D001600DB
:103D3000437C002B02D0002400200CE0036811001B
:103D4000280098472DE03B7C10E03B681548022195
:103D50009847601C0134B44214DA002CF3DD2B19AF
:103D6000013B1B780D3B5A425341DBB22A5D0A2AC4
:103D7000F0D1002BEED1A042E7DA3B68211A2818D7
:103D80009847E2E7B04203DA3B68311A28189847AF
:103D9000002E06DDAD19013D2B780D3B5A425341F3
:103DA0003B74F8BDF44E001070B505000368002B9D
:103DB00016D00C4B1C6805E0290004C92000FFF751
:103DC000B3FFE468002C09D02368002BF9D0064B20
:103DD0001B68002BF0D0A342F3D1EDE700232B604A
:103DE00070BDC0463C0800204008002070B50500AA
:103DF0000C000B68802B05D023685A1C2260E41845
:103E0000257170BD0800FFF7CFFFF5E710B582B050
:103E1000D0231B061C68074801A900F071F900288F
:103E200006D1019BA34203D0024800F071F90120A2
:103E300002B010BD9C06002010B5024800F048F901
:103E400010BDC0469C060020F0B5C64600B582B045
:103E500006000D001700FFF7D9FF80466B1C02D04B
:103E6000184B1C6805E0300000F098F80500F7E7F3
:103E7000E468002C18D02368002BF9D0124B1B6883
:103E8000002B01D0A342F3D12A0031002000FFF71C
:103E90004BFF002FECD06B46D91D0A230B7001227B
:103EA0002000FFF741FFE3E74346002B06D16B1EDE
:103EB0009D41E8B202B080BCB846F0BDFFF7BCFF40
:103EC000F5E7C0463C0800204008002010B5064B2E
:103ED0001C6801E09847E468002C03D06368002B5D
:103EE000F8D1F8E710BDC0463C08002070B50500C9
:103EF00000F054F80400012201002800FFF7A4FF9D
:103F0000FFF7E4FF200070BD70B5A2B004000E0002
:103F1000FFF77CFF05008422002101A8FFF7F8FECF
:103F200009483300220001A9FEF764FF040001A83C
:103F3000FFF73AFFFFF7CAFF002D02D1200022B0A1
:103F400070BDFFF779FFF9E7ED3D00100FB400B544
:103F500083B004A901C90191FFF7D6FF03B008BCE3
:103F600004B0184710B5010000230022002000F023
:103F700043F810BD70B5074D074C641BA41005D065
:103F8000013CA300EB589847002CF9D100F09CF8B5
:103F900070BDC046BC060020BC06002010B58307DB
:103FA0000AD00300032102E001330B4205D01A7846
:103FB000002AF9D1181A10BD030019680C4A0D4CDB
:103FC0008A188A4322420FD15968094A04338A1851
:103FD0008A43224208D15968054A04338A188A4321
:103FE0002242F1D000E001331A78002AFBD1E1E748
:103FF000FFFEFEFE80808080F0B5D6464F464646E6
:10400000C0B5274F82B006003868914698468A4668
:1040100000F056F8234B1B680193A423019A5B0020
:10402000D558002D31D06C6838681F2C32DC002E3A
:104030000ED1631C6B6053460234A400635100F040
:1040400041F8002002B0E0BCBA46B146A846F0BD37
:1040500088224946A300EB189950C42149008C4698
:10406000AC446146873AA24067460968114339600B
:104070008421474649005F50022EDAD12B008D3350
:10408000FF3319680A431A60D3E715004D35FF3531
:10409000D550C8E700F016F801204042D2E7C046EC
:1040A00098060020F84E0010034B10B5002B02D0EC
:1040B0000248FFF757FF10BD00000000753F0010D9
:1040C0007047C0467047C046F8B5C04600000000C3
:1040D00001B40248844601BC604700BF6D01002066
:1040E00001B40248844601BC604700BFB90100200A
:1040F00001B40248844601BC604700BFB9010020FA
:1041000001B40248844601BC604700BF250100207D
:1041100001B40248844601BC604700BFC1000020D2
:10412000010000000000000000000000000000008E
:10413000000000000100000000000000000000007E
:10414000000000000000000001000000000000006E
:10415000000000000000000000000000010000005E
:1041600072742D3E616C61726D5F6964203D3D200B
:10417000696400002F686F6D652F64656C6F2F4454
:10418000726F70626F782F7261737062657272798C
:104190005F70692F7069636F2F73646B2F70696331
:1041A0006F2D73646B2F7372632F636F6D6D6F6E02
:1041B0002F7069636F5F74696D652F74696D652E0B
:1041C000630000006964202626206964203C3D20AD
:1041D000706F6F6C2D3E686561702D3E6D61785F0C
:1041E0006E6F646573000000696420262620696490
:1041F000203C3D20686561702D3E6D61785F6E6F7B
:10420000646573002F686F6D652F64656C6F2F4454
:10421000726F70626F782F726173706265727279FB
:104220005F70692F7069636F2F73646B2F706963A0
:104230006F2D73646B2F7372632F636F6D6D6F6E71
:104240002F7069636F5F7574696C2F696E636C752D
:1042500064652F7069636F2F7574696C2F70686562
:1042600061702E6800000000706172656E745F6995
:10427000640000006368696C645F696400000000AA
:10428000706172656E745F696420213D20636869A6
:104290006C645F69640000002170685F636F6E7416
:1042A00061696E735F6E6F646528706F6F6C2D3E11
:1042B000686561702C2072657573655F696429009B
:1042C00072656D6F7665645F6964203D3D206E6543
:1042D00078745F696400000063616C6C6261636B99
:1042E00000000000706F6F6C2D3E616C61726D5F3D
:1042F000696E5F70726F6772657373203D3D206DEC
:10430000616B655F7075626C69635F69642869647D
:104310005F686967682C206E6578745F696429003E
:104320006964202626202170685F636F6E7461695E
:104330006E735F6E6F646528686561702C206964B8
:104340002900000064656661756C745F616C617260
:104350006D5F706F6F6C5F696E697469616C697AAB
:104360006564282900000000417474656D707465EF
:104370006420746F20736C65657020696E73696466
:1043800065206F6620616E20657863657074696F63
:104390006E2068616E646C65723B20757365206287
:1043A0007573795F7761697420696620796F75200C
:1043B0006D75737400000000616C61726D5F706FE9
:1043C0006F6C5F616C61726D5F63616C6C62616385
:1043D0006B0000006765745F656E747279000000A1
:1043E000616C61726D5F706F6F6C5F6765745F6445
:1043F000656661756C7400006765745F656E7472E4
:10440000795F69645F6869676800000070685F666B
:104410007265655F6E6F64650000000070685F61C3
:1044200064645F6368696C645F6E6F64650000005C
:1044300070685F696E736572745F6E6F64650000AB
:1044400070685F6765745F6E6F6465006164645F68
:10445000616C61726D5F756E6465725F6C6F636BCA
:1044600000000000486172647761726520616C61D0
:10447000726D20256420616C726561647920636CC3
:1044800061696D656400000074696D65725F6877CD
:104490002D3E696E74732026203175203C3C2061CE
:1044A0006C61726D5F6E756D000000002F686F6D3E
:1044B000652F64656C6F2F44726F70626F782F7216
:1044C00061737062657272795F70692F7069636F72
:1044D0002F73646B2F7069636F2D73646B2F73720E
:1044E000632F7270325F636F6D6D6F6E2F686172D4
:1044F00064776172655F74696D65722F74696D654B
:10450000722E630068617264776172655F616C61CD
:10451000726D5F7365745F7461726765740000002B
:104520006D74782D3E636F72652E7370696E5F6C6B
:104530006F636B002F686F6D652F64656C6F2F4420
:10454000726F70626F782F726173706265727279C8
:104550005F70692F7069636F2F73646B2F7069636D
:104560006F2D73646B2F7372632F636F6D6D6F6E3E
:104570002F7069636F5F73796E632F6D75746578E3
:104580002E6300006D74782D3E6F776E6572203E4D
:104590003D2030006D757465785F65786974000042
:1045A0006D757465785F656E7465725F626C6F635C
:1045B0006B696E6700000000726F6F745F69640062
:1045C0002F686F6D652F64656C6F2F44726F70621A
:1045D0006F782F7261737062657272795F70692F84
:1045E0007069636F2F73646B2F7069636F2D7364D1
:1045F0006B2F7372632F636F6D6D6F6E2F706963B6
:104600006F5F7574696C2F70686561702E63000050
:104610002170685F6765745F6E6F646528686561A7
:10462000702C20726F6F745F6964292D3E7369620C
:104630006C696E67000000002170685F6765745FD9
:104640006E6F646528686561702C20726F6F745F8F
:104650006964292D3E706172656E7400666F756EB7
:10466000640000006E65775F7375625F74726565E4
:1046700020213D20686561702D3E726F6F745F6907
:104680006400000070685F72656D6F76655F616ED3
:10469000645F667265655F6E6F64650070685F7207
:1046A000656D6F76655F616E795F68656164000056
:1046B00070685F6164645F6368696C645F6E6F6497
:1046C0006500000070685F6765745F6E6F64650009
:1046D0002C2066756E6374696F6E3A2000000000CE
:1046E000617373657274696F6E2022257322206670
:1046F00061696C65643A2066696C652022257322C5
:104700002C206C696E65202564257325730A0000D2
:104710000A2A2A2A2050414E4943202A2A2A0A00DE
:104720000A0000007372635F66726571203E3D206F
:1047300066726571000000002F686F6D652F6465FB
:104740006C6F2F44726F70626F782F72617370623A
:10475000657272795F70692F7069636F2F73646B14
:104760002F7069636F2D73646B2F7372632F727078
:10477000325F636F6D6D6F6E2F6861726477617207
:10478000655F636C6F636B732F636C6F636B732E0A
:1047900063000000636C6F636B5F636F6E666967D5
:1047A000757265006662646976203E3D2031362070
:1047B0002626206662646976203C3D203332300034
:1047C0002F686F6D652F64656C6F2F44726F706218
:1047D0006F782F7261737062657272795F70692F82
:1047E0007069636F2F73646B2F7069636F2D7364CF
:1047F0006B2F7372632F7270325F636F6D6D6F6EAC
:104800002F68617264776172655F706C6C2F706C79
:104810006C2E630028706F73745F64697631203E7C
:104820003D203120262620706F73745F64697631D5
:10483000203C3D2037292026262028706F73745F86
:1048400064697632203E3D203120262620706F7329
:10485000745F64697632203C3D20372900000000F7
:10486000706F73745F64697632203C3D20706F73A3
:10487000745F6469763100007265665F6D687A20E6
:104880003C3D202876636F5F66726571202F203172
:1048900036290000706C6C5F696E6974000000005E
:1048A000212864656C7461203E3E203131752900F9
:1048B0002F686F6D652F64656C6F2F44726F706227
:1048C0006F782F7261737062657272795F70692F91
:1048D0007069636F2F73646B2F7069636F2D7364DE
:1048E0006B2F7372632F7270325F636F6D6D6F6EBB
:1048F0002F68617264776172655F6972712F697286
:10490000712E630063757272656E74203D3D205F89
:104910005F756E68616E646C65645F757365725F08
:10492000697271207C7C2063757272656E74203DA3
:104930003D2068616E646C65720000006972715F91
:1049400068616E6465725F636861696E5F667265F7
:10495000655F736C6F745F68656164203E3D2030F5
:1049600000000000767461626C655F68616E646C63
:104970006572203D3D205F5F756E68616E646C6599
:10498000645F757365725F69727100002128282861
:104990002875696E747074725F7429767461626CC4
:1049A000655F68616E646C657229202D202828750A
:1049B000696E747074725F74296972715F68616E78
:1049C000646C65725F636861696E5F736C6F74734A
:1049D00029202D2031292573697A656F6628737423
:1049E00072756374206972715F68616E646C657260
:1049F0005F636861696E5F736C6F742929000000E2
:104A000030783163203D3D20282A696E7374293E39
:104A10003E3131750000000021657863657074696E
:104A20006F6E207C7C20657863657074696F6E2082
:104A30003D3D206E756D202B2031360066616C7314
:104A40006500000069735F7368617265645F697215
:104A5000715F7261775F68616E646C657228736CF8
:104A60006F745F68616E646C657229006578636558
:104A70007074696F6E0000006972715F6164645FD9
:104A80007461696C5F746F5F667265655F6C697392
:104A900074000000696E736572745F6272616E63A8
:104AA000685F616E645F6C696E6B00006972715F54
:104AB00072656D6F76655F68616E646C657200002B
:104AC0006D616B655F6272616E6368007265736FC2
:104AD0006C76655F6272616E636800006972715F17
:104AE0007365745F6578636C75736976655F68611B
:104AF0006E646C6572000000666E692B0000000039
:104B0000666E69006E616E00666E692D00000000C1
:104B10005228001002280010022800105C28001003
:104B2000022800100228001002280010022800109D
:104B30000228001002280010022800104828001047
:104B4000022800103E280010022800100228001041
:104B500034280010F42800101A29001038290010F9
:104B60001A290010D42800101A2900101A29001040
:104B70001A2900101A2900101A2900101A290010E9
:104B80001A290010102900101A2900101A290010E3
:104B90001A2900101A2900101A290010442900109F
:104BA000AC2D001074290010742900107429001015
:104BB0007429001074290010742900107429001041
:104BC0007429001074290010742900107429001031
:104BD0007429001074290010742900107429001021
:104BE0007429001074290010742900107429001011
:104BF0007429001074290010742900107429001001
:104C000074290010742900107429001074290010F0
:104C100074290010742900107429001074290010E0
:104C2000D62B0010962B0010D62B001074290010E4
:104C300074290010742900107429001074290010C0
:104C400074290010742900107429001074290010B0
:104C500074290010742900107429001074290010A0
:104C6000742900107429001074290010882900107C
:104C70007429001074290010742900107429001080
:104C80007429001074290010742900107429001070
:104C90007429001088290010262C00108829001083
:104CA000D62B0010962B0010D62B00100000000011
:104CB000000000000000F03F000000000000244061
:104CC00000000000000059400000000000408F403C
:104CD000000000000088C34000000000006AF840A7
:104CE0000000000080842E4100000000D0126341CB
:104CF0000000000084D797410000000065CDCD4141
:104D00002A282875696E74385F74202A2928282873
:104D1000766F6964202A29726F6D5F646174615FC8
:104D20006C6F6F6B757028726F6D5F7461626C650C
:104D30005F636F6465282753272C2027462729297E
:104D4000292D322929202A2034203E3D2053465F38
:104D50005441424C455F56325F53495A450000006A
:104D60002F686F6D652F64656C6F2F44726F706272
:104D70006F782F7261737062657272795F70692FDC
:104D80007069636F2F73646B2F7069636F2D736429
:104D90006B2F7372632F7270325F636F6D6D6F6E06
:104DA0002F7069636F5F646F75626C652F646F75D8
:104DB000626C655F696E69745F726F6D2E6300006F
:104DC0005F5F61656162695F646F75626C655F6991
:104DD0006E6974002A282875696E74385F74202AF9
:104DE0002928726F6D5F7461626C652D32292920EC
:104DF0002A2034203E3D2053465F5441424C455FBB
:104E000056325F53495A45002F686F6D652F6465B0
:104E10006C6F2F44726F70626F782F726173706263
:104E2000657272795F70692F7069636F2F73646B3D
:104E30002F7069636F2D73646B2F7372632F7270A1
:104E4000325F636F6D6D6F6E2F7069636F5F666C3D
:104E50006F61742F666C6F61745F696E69745F72E5
:104E60006F6D2E63000000005F5F61656162695FC6
:104E7000666C6F61745F696E697400004465627589
:104E800067000000626F6F74325F773235713038BF
:104E900030000000302E3100312E312E3000000065
:104EA0007069636F00000000737465707065725FF5
:104EB0006D6F746F720000004665622031382032D9
:104EC0003032320006005250BBFF3CB6A04E0010FC
:104ED000060052503ABCA911944E001006005250E0
:104EE000E182887F844E001006005250D3F0754254
:0C4EF0007C4E00100D0A00007002002033
:104EFC00B4020010A80200109C020010C44E001056
:104F0C0090020010D04E0010DC4E0010E84E001045
:104F1C0010B50368002B1AD001230168EFF3108C35
:104F2C0072B60A68002AFCD0BFF35F8F0422825647
:104F3C00002A12DB0268BFF35F8F002111608CF333
:104F4C001088002B00D020BF002BE6D110BD064BE3
:104F5C00064A0748152100F05BF8D0231B061B7886
:104F6C005BB203710023E5E720450010A04500105B
:104F7C003445001003000068EFF3108C72B6026821
:104F8C00002AFCD0BFF35F8F04229A56002A0BDB59
:104F9C00002910D00A6000201B68BFF35F8F00222D
:104FAC001A608CF310887047D0221206127852B215
:104FBC001A710120F0E70020EEE7000010B502683E
:104FCC00EFF3108172B61368002BFCD0BFF35F8F28
:104FDC000423C356002B0ADBFF23037140BF036875
:104FEC00BFF35F8F00221A6081F3108810BD034B52
:104FFC00034A04484B2100F00BF8C04684450010CE
:10500C0094450010344500107047C0460000000065
:10501C0001B40248844601BC604700BF091500106A
:10502C0010000000EC01002000000000C006002071
:10503C00FC07002000000000000000000C0800200D
:10504C000000000000000000100000000000000044
:10505C000000010000000000000000000000020041
:10506C000000000000000000000003000000000031
:10507C00000000000000FF000000000000B54868C0
:10508C0001318E460047704609380149884700BDFA
:10509C00A51B001000000000000000000000000034
:1050AC00503300004C3300005433000052330000E6
:1050BC004D5300004D4300005334000043340000B6
:1050CC00000000005C050020C40500202C06002018
:1050DC0000000000000000000000000000000000C4
:1050EC0000000000000000000000000000000000B4
:1050FC0000000000000000000000000000000000A4
:10510C000000000000000000000000000000000093
:10511C000000000000000000000000000000000083
:10512C000000000000000000000000000000000073
:10513C000000000000000000000000000000000063
:10514C000000000000000000000000000000000053
:10515C000000000000000000000000000000000043
:10516C000000000000000000010000000000000032
:10517C000E33CDAB34126DE6ECDE05000B000000F7
:10518C000000000000000000000000000000000013
:10519C000000000000000000000000000000000003
:1051AC0000000000000000000000000000000000F3
:1051BC0000000000000000000000000000000000E3
:1054EC000000000000000000C007002000000000C9
:1054FC0000000000013D0010152E001005350010B5
:0C550C00D13B0010A9400010C5020010A7
:04000005100001E9FD
:00000001FF
